S01F0000417474696E795F49525F524742575F537065637472756D2E737265634F
S113000009C021C021C01FC01EC01DC01CC01BC010
S11300101AC019C011241FBECFE9CDBF10E0A0E65D
S1130020B0E0ECE3F3E002C005900D92A038B10714
S1130030D9F720E0A0E8B0E001C01D92AB38B207C8
S1130040E1F7AAD079C1DCCF1F920F920FB60F92BD
S113005011242F938F939F93B49936C022B781E0D4
S113006082BF08B601FE05C01092820082E088BFFC
S11300702BC0203448F58091800090918100880F36
S1130080991F203208F08160909381008093800052
S1130090909182009F5F90938200809180002091D4
S11300A081008095903119F4281310928200909168
S11300B08200903249F4281305C020938A0081E01D
S11300C0809389008FEF82BF9F918F912F910F9022
S11300D00FBE0F901F901895282F30E08091880054
S11300E090E0B90118D1880F892F881F990B80934C
S11300F085008091870090E0B9010DD1880F892F88
S1130100881F990B809384008091860090E0B90148
S113011002D1880F892F881F990B809383008091C7
S1130120610090E0B901F7D0880F892F881F990BDF
S11301308093600008958B3228F496E5FB01908348
S1130140880F0AC025E530E0F901E81BF109CF0169
S1130150880FFB01808386E5FA018083089510925D
S113016088001092870010928600109261008635F4
S113017028F447E850E068E870E00DC08B3A30F4AA
S113018046E850E067E870E0855505C048E850E06F
S113019066E870E08A5ACFCF85B7877E806185BFD5
S11301A085B7806285BF87B38F6087BB84E083BFD8
S11301B08BB780628BBFAC9A7894D0E800E0F12CC6
S11301C010E2C0E036E5E32E80918900882309F42B
S11301D057C01092890080918A00803E11F4CF7735
S11301E0F3CF803611F4C068EFCFC7FDEDCF803A6E
S11301F061F4C11106C0D13410F4DD0F0FC0D0E892
S11302000DC0113009F31695DFCF803281F4C1118E
S113021008C0D03210F0D69501C0D0E18D2F5CDF3C
S1130220D3CF17FF02C01FEFCFCF110FCDCF883C24
S113023011F4C1E0C9CF803F11F4C2E0C5CF883DBD
S113024011F4C3E0C1CF883E59F0803D51F41092BF
S113025088001092870010928600E092610018C016
S1130260C4E09EE0E92FF0E0EE0FFF1FEE59FF4FD0
S11302702081821303C0818172DF0AC0915090F7FC
S1130280C7FF09C008B601FE9FCF18BA88959CCF56
S11302908D2F22DFC0E0F116C8F0C13011F4802F99
S11302A004C0C23029F4802F807E59DF80E80BC05F
S11302B0C33029F4802F013830F0809504C0C43055
S11302C019F4802F807808DF0F5FF12CF39490915C
S11302D06000209183003091840040918500463570
S11302E009F0C198363509F0C298263509F0C0984E
S11302F0963509F0C39886E5481301C0C19A3813AE
S113030001C0C29A281301C0C09A981301C0C39AAD
S1130310815091F759CF0024552704C0080E591F66
S1130320880F991F009729F076956795B8F37105A2
S10F0330B9F7802D952F0895F894FFCFA5
S113033C56569000B002A805980A88141055305FE0
S113034C28691873088050AA70B968C858D748E649
S9030000FC
