S0160000417474696E795F49525F524742572E737265630A
S113000029C041C041C03FC03EC03DC03CC03BC010
S11300103AC039C0D000000090640000B0640C0005
S1130020A8641900986432008864640010006400B5
S11300303000640C280064191800643208006464F9
S113004050000064700C0064681900645832006445
S11300504864006411241FBECFE9CDBF10E0A0E6C0
S1130060B0E0E4E9F3E002C005900D92A436B107D4
S1130070D9F720E0A4E6B0E001C01D92AF36B20784
S1130080E1F793D085C1BCCF1F920F920FB60F92A8
S113009011242F938F939F93B49936C022B781E094
S11300A082BF08B601FE05C01092660082E088BFD8
S11300B02BC0203448F58091640090916500880F2E
S11300C0991F203208F0816090936500809364004A
S11300D0909166009F5F90936600809164002091E8
S11300E065008095903119F4281310926600909160
S11300F06600903249F4281305C020936E0081E015
S113010080936D008FEF82BF9F918F912F910F90FD
S11301100FBE0F901F901895282F30E080916C002F
S113012090E0B90124D19093690080916B0090E034
S1130130B9011DD19093680080916A0090E0B901E3
S113014016D1909367008091620090E0B9010FD1BD
S1130150909361000895882311F090E001C094E623
S11301609093620090E0880F991F880F991FFC01FB
S1130170EB5EFF4FE491E0936C00FC01EA5EFF4FFD
S1130180E491E0936B00FC01E95EFF4F849180935E
S11301906A000895809160008F5F803108F081E0EB
S11301A08093600080916000D6CF85B7877E8061A0
S11301B085BF85B7806285BF87B38F6087BB84E0C6
S11301C083BF8BB780628BBFAC9A7894DFEF00E07B
S11301D0F12C10E2C0E080916D00882309F44EC038
S11301E010926D0090916E00903E11F4CF77F3CF92
S11301F0903611F4C068EFCFC7FDEDCF903A61F4AB
S1130200C11106C0D7FD02C0DD0F0FC0DFEF0DC066
S1130210113009F31695DFCF903281F4C11108C073
S1130220D03210F0D69501C0D0E18D2F75DFD3CF39
S113023017FF02C01FEFCFCF110FCDCF983C21F491
S113024010926100C1E0C7CF903F11F4C2E0C3CF68
S1130250983D11F4C3E0BFCF983E09F4C4E0E4E153
S1130260F0E080E02491921305C075DF8D2F54DFF8
S1130270C0E00CC08F5F34968031A1F7C7FF06C081
S113028008B601FEA8CF18BA8895A5CFF394F11645
S113029008F449C0C23029F4011143C07BDF8FEF59
S11302A00EC0C33041F4802F07FF03C090E0809557
S11302B09095880F04C0C43021F4802F80782CDFFF
S11302C030C0C13071F590916C008091690089173C
S11302D010F48F5F03C0981728F48150809369004D
S11302E090E001C091E020916B008091680082173A
S11302F010F48F5F03C0281720F4815080936800A6
S113030090E020916A0080916700821710F48F5F5B
S113031003C0281720F481508093670002C0911114
S113032039DF0F5FF12C90916100209167003091CB
S1130330680040916900443609F0C198343609F0E8
S1130340C298243609F0C098943609F0C39884E61C
S1130350481301C0C19A381301C0C29A281301C0BE
S1130360C09A981301C0C39A815091F734CF0024E6
S1130370552704C0080E591F880F991F009729F0AC
S113038076956795B8F37105B9F7802D952F089583
S1070390F894FFCF0B
S10703940164640098
S9030000FC
