:1000000029C041C041C03FC03EC03DC03CC03BC014
:100010003AC039C0D064646490640000B0640C00DD
:10002000A8641900986432008864640010006400B9
:100030003000640C280064191800643208006464FD
:1000400050000064700C0064681900645832006449
:100050004864006411241FBECFE9CDBF10E0A0E6C4
:10006000B0E0E0E6F3E002C005900D92A436B107DF
:10007000D9F720E0A4E6B0E001C01D92AD36B2078A
:10008000E1F785D06BC1BCCF1F920F920FB60F92D4
:1000900011242F938F939F93B49936C022B781E098
:1000A00082BF08B601FE05C01092660082E088BFDC
:1000B0002BC0203448F58091640090916500880F32
:1000C000991F203208F0816090936500809364004E
:1000D000909166009F5F90936600809164002091EC
:1000E00065008095903119F4281310926600909164
:1000F0006600903249F4281305C020936C0081E01B
:1001000080936B008FEF82BF9F918F912F910F9003
:100110000FBE0F901F901895282F30E0809162003D
:1001200090E0B9010AD19093610080916A0090E05B
:10013000B90103D1909368008091690090E0B90102
:10014000FCD090936700089590E0880F991F880F66
:10015000991FFC01EB5EFF4FE491E0936200FC010C
:10016000EA5EFF4FE491E0936A00FC01E95EFF4F15
:100170008491809369000895809160008F5F803141
:1001800008F081E08093600080916000DDCF85B74A
:10019000877E806185BF85B7806285BF87B38760B2
:1001A00087BB84E083BF8BB780628BBFAC9A7894A7
:1001B000DFEF00E0F12C10E2C0E880916B008823B3
:1001C00009F44CC010926B0090916C00903E11F4B9
:1001D000CF77F3CF903611F4C068EFCFC7FDEDCFE6
:1001E000903A61F4C11106C0D7FD02C0DD0F0FC007
:1001F000DFEF0DC0113009F31695DFCF903281F497
:10020000C11108C0D03210F0D69501C0D0E18D2FB9
:1002100083DFD3CF17FF02C01FEFCFCF110FCDCF9A
:10022000983C11F4C1E0C9CF903F11F4C2E0C5CFB2
:10023000983D11F4C3E0C1CF983E09F4C4E0E4E175
:10024000F0E080E02491921305C07EDF8D2F64DF03
:10025000C0E00CC08F5F34968031A1F7C7FF06C0A5
:1002600008B601FEAACF18BA8895A7CFF394F11665
:1002700008F449C0C23029F4011143C07DDF8FEF7B
:100280000EC0C33041F4802F07FF03C090E080957B
:100290009095880F04C0C43021F4802F80783CDF13
:1002A00030C0C13071F59091620080916100891772
:1002B00010F48F5F03C0981728F481508093610079
:1002C00090E001C091E020916A008091680082175F
:1002D00010F48F5F03C0281720F4815080936800CA
:1002E00090E02091690080916700821710F48F5F81
:1002F00003C0281720F481508093670002C0911139
:100300003BDF0F5FF12C90916700209168003091E6
:1003100061003111C19A2111C29A9111C09A80E0F5
:10032000381301C0C198281301C0C298981301C0A6
:10033000C0988F5F8536A1F740CF0024552704C0B1
:10034000080E591F880F991F009729F07695679519
:10035000B8F37105B9F7802D952F0895F894FFCF64
:0403600001646400D0
:00000001FF
